:03000000020006F5
:20005F0075210175220075083F750906750A5B750B4F750C66750D6D750E7D750F07751084
:20007F007F75116F75127775137C75143975155E751679751771751901751A02751B047517
:11009F001C08751D10751E20751F40752080020003E9
:030003000203777E
:2000B000AE82AF838E048F051EBEFF011FEC4D70F322AE82AF83EE4F601B7C6E7D00EC245E
:2000D000FFFAED34FFFB8A048B05EA4B70F01EBEFF011F80E1227F08BF08005003020157D0
:2000F000EF24F05003020157EF24F8FE240A83F582EE240C83F583E4731921293139414948
:20011000510101010101010101D2A4D2A3D2A28036D2A4D2A3C2A2802ED2A4C2A3D2A28095
:2001300026D2A4C2A3C2A2801EC2A4D2A3D2A28016C2A4D2A3C2A2800EC2A4C2A3D2A2803B
:2001500006C2A4C2A3C2A2EF2408F98780900064C0071200B0D0077580000FBF10005003C5
:200170000200E822E582FF60037521017401B5213130B10930B00630B20320B3259003E85F
:200190001200B075210020B1047582012220B0047582012220B2047582012220B31375824D
:2001B000012230B10C30B00930B20630B30375210175820022740FF590B5900280739003E3
:2001D000E81200B0740FB59002806975900FAF90BF0702800FBF0B02800FBF0D02800FBF91
:2001F0000E14800F752201800D752202800875220380037522047590F0AF90BF7002802A31
:20021000BFB002800CBFD0028010BFE01D80148019AF2274042FF5228010AF2274082FF537
:20023000228007AF22740C2FF52274F0B590FB8003752200852282227F0074F7F590B590B1
:2002500002802E9003E8C0071200B0D007AE90BE7702800FBEB702800EBED702800DBEE731
:2002700010800C7F01800A7F0580067F0980027F0D74F7B590FB74FBF590B59002802E9004
:2002900003E8C0071200B0D007AE90BE7B02800FBEBB02800EBEDB02800DBEEB10800C7F06
:2002B00002800A7F0680067F0A80027F0E74FBB590FB74FDF590B59002802E9003E8C00723
:2002D0001200B0D007AE90BE7D02800FBEBD02800EBEDD02800DBEED10800C7F03800A7F64
:2002F0000780067F0B80027F0F74FDB590FB74FEF590B59002802E9003E8C0071200B0D056
:2003100007AE90BE7E02800FBEBE02800EBEDE02800DBEEE10800C7F04800A7F0880067FA3
:200330000C80027F1074FEB590FB8F8222AF827E00EF23540124FF92B48F05ED2DFFC2B607
:20035000900001C007C0061200B0D2B69000011200B0D006D0070EBE080040D5C2B5900035
:12037000011200B0D2B52275807F75828012033D80F85A
:06003500E478FFF6D8FD9F
:200013007900E94400601B7A00900386780175A000E493F2A308B8000205A0D9F4DAF2750A
:02003300A0FF2C
:20003B007800E84400600A790175A000E4F309D8FC7800E84400600C7900900001E4F0A3C3
:04005B00D8FCD9FAFA
:0D000600758122120382E58260030200036F
:04038200758200225E
:00000001FF
