:03000000020006F5
:20005F00751901751A0075083F750906750A5B750B4F750C66750D6D750E7D750F07751094
:19007F007F75116F75127775137C75143975155E75167975177102000342
:03000300020301F4
:20009800AE82AF838E048F051EBEFF011FEC4D70F3227F08BF0800500302011BEF24F050F5
:2000B8000302011BEF24F8FE240A83F582EE240C83F583E473DDE5EDF5FD050D150000009E
:2000D8000000010101D2A4D2A3D2A28036D2A4D2A3C2A2802ED2A4C2A3D2A28026D2A4C2C6
:2000F800A3C2A2801EC2A4D2A3D2A28016C2A4D2A3C2A2800EC2A4C2A3D2A28006C2A4C2A4
:20011800A3C2A2EF2408F98780900064C007120098D0077580000FBF100050030200AC2273
:20013800E582FF60037519017401B5193130B10930B00630B20320B3259003E81200987594
:20015800190020B1047582012220B0047582012220B2047582012220B3137582012230B1C0
:200178000C30B00930B20630B30375190175820022740FF590B5900280739003E812009895
:20019800740FB59002806975900FAF90BF0702800FBF0B02800FBF0D02800FBF0E14800FC2
:2001B800751A01800D751A028008751A038003751A047590F0AF90BF7002802ABFB0028049
:2001D8000CBFD0028010BFE01D80148019AF1A74042FF51A8010AF1A74082FF51A8007AF29
:2001F8001A740C2FF51A74F0B590FB8003751A00851A82227F0074F7F590B59002802E9022
:2002180003E8C007120098D007AE90BE7702800FBEB702800EBED702800DBEE710800C7FA6
:2002380001800A7F0580067F0980027F0D74F7B590FB74FBF590B59002802E9003E8C007A5
:20025800120098D007AE90BE7B02800FBEBB02800EBEDB02800DBEEB10800C7F02800A7FFD
:200278000680067F0A80027F0E74FBB590FB74FDF590B59002802E9003E8C007120098D0EC
:2002980007AE90BE7D02800FBEBD02800EBEDD02800DBEED10800C7F03800A7F0780067F22
:2002B8000B80027F0F74FDB590FB74FEF590B59002802E9003E8C007120098D007AE90BEAF
:2002D8007E02800FBEBE02800EBEDE02800DBEEE10800C7F04800A7F0880067F0C80027FD2
:1A02F8001074FEB590FB8F822212020CE582FE60F8EE142408F9878080EF7D
:06003500E478FFF6D8FD9F
:200013007900E94400601B7A00900316780175A000E493F2A308B8000205A0D9F4DAF2757A
:02003300A0FF2C
:20003B007800E84400600A790175A000E4F309D8FC7800E84400600C7900900001E4F0A3C3
:04005B00D8FCD9FAFA
:0D00060075811A120312E5826003020003E7
:0403120075820022CE
:00000001FF
