:0600000002000902038664
:20006200753A01753B0075213F75220675235B75244F75256675266D75277D75280775296E
:200082007F752A6F752B77752C7C752D39752E5E752F79753071753201753302753404751A
:1100A200350875361075372075384075398002000666
:0300060002038171
:2000B300AE82AF838E048F051EBEFF011FEC4D70F322AE82AF83EE4F601B7C6E7D00EC245B
:2000D300FFFAED34FFFB8A048B05EA4B70F01EBEFF011F80E1227F08BF0800500302015ACA
:2000F300EF24F0500302015AEF24F8FE240A83F582EE240C83F583E4731C242C343C444C2D
:20011300540101010101010101D2A4D2A3D2A28036D2A4D2A3C2A2802ED2A4C2A3D2A2808F
:2001330026D2A4C2A3C2A2801EC2A4D2A3D2A28016C2A4D2A3C2A2800EC2A4C2A3D2A28038
:2001530006C2A4C2A3C2A2EF2421F98780900064C0071200B3D0077580000FBF10005003A6
:200173000200EB22E582FF6003753A017401B53A3130B10930B00630B20320B3259003E827
:200193001200B3753A0020B1047582012220B0047582012220B2047582012220B31375822E
:2001B300012230B10C30B00930B20630B303753A0175820022740FF590B5900280739003C7
:2001D300E81200B3740FB59002806975900FAF90BF0702800FBF0B02800FBF0D02800FBF8B
:2001F3000E14800F753B01800D753B028008753B038003753B047590F0AF90BF7002802ACA
:20021300BFB002800CBFD0028010BFE01D80148019AF3B74042FF53B8010AF3B74082FF5E9
:200233003B8007AF3B740C2FF53B74F0B590FB8003753B00853B82227F0074F7F590B59031
:2002530002802E9003E8C0071200B3D007AE90BE7702800FBEB702800EBED702800DBEE72B
:2002730010800C7F01800A7F0580067F0980027F0D74F7B590FB74FBF590B59002802E9001
:2002930003E8C0071200B3D007AE90BE7B02800FBEBB02800EBEDB02800DBEEB10800C7F00
:2002B30002800A7F0680067F0A80027F0E74FBB590FB74FDF590B59002802E9003E8C00720
:2002D3001200B3D007AE90BE7D02800FBEBD02800EBEDD02800DBEED10800C7F03800A7F5E
:2002F3000780067F0B80027F0F74FDB590FB74FEF590B59002802E9003E8C0071200B3D050
:2003130007AE90BE7E02800FBEBE02800EBEDE02800DBEEE10800C7F04800A7F0880067FA0
:200333000C80027F1074FEB590FB8F8222AF827E00EF23540124FF92B48F05ED2DFFC2B604
:20035300900001C007C0061200B3D2B69000011200B3D006D0070EBE080040D5C2B590002C
:20037300011200B3D2B522D288D2A8D2AF2212037A80FEC020C0E0C0F0C082C083C007C03B
:2003930006C005C004C003C002C001C000C0D075D0009003E81200B320B202B2A0D0D0D00A
:1A03B30000D001D002D003D004D005D006D007D083D082D0F0D0E0D020322D
:06003800E478FFF6D8FD9C
:200016007900E94400601B7A009003D1780175A000E493F2A308B8000205A0D9F4DAF275BC
:02003600A0FF29
:20003E007800E84400600A790175A000E4F309D8FC7800E84400600C7900900001E4F0A3C0
:04005E00D8FCD9FAF7
:0D00090075813B1203CDE582600302000605
:0403CD007582002213
:00000001FF
