:03000000020006F5
:03008F0002000369
:0300030002009266
:200092007E007F00C007C00612024BD006D0077D000D8D037C007522328C238B828C83C0CE
:2000B20007C006C0051205DCE5828583F0D005D006D00745F07040C0051202E0AA82AB83D0
:2000D200ACF0FDC002C003C004C00590000075F02074411203E0AA82AB83ACF0FDE581242B
:2000F200FCF5818A828B838CF0EDC005120531AE82AF83D005D005EF30E70CC3E49EFEE4A7
:200112009FFF7508408003750800750901750A02750B03750C04751E0490000875F040C0D6
:1101320007C006C005120143D005D006D0070200A3AD
:20005F00750D3F750E06750F5B75104F75116675126D75137D75140775157F75166F751780
:10007F007775187C751939751A5E751B79751C7132
:2001430085821F85832085F021AC1E1C8C03BB0800400122EB24F850030201BBEB240A8369
:20016300F582EB240C83F583E4737D858D959DA5ADB50101010101010101D2A4D2A3D2A269
:200183008036D2A4D2A3C2A2802ED2A4C2A3D2A28026D2A4C2A3C2A2801EC2A4D2A3D2A288
:2001A3008016C2A4D2A3C2A2800EC2A4C2A3D2A28006C2A4C2A3C2A28B027F008C057E00CA
:2001C300EAC39DFAEF9EFFEA251FFAEF3520FFAE218A828F838EF01205C0240DF9878090DE
:1401E3000064C004C0031203ADD003D0047580000B02015160
:2001F700C2B790004B1203ADD2B79000020203AD7F0030B712BF1400500D0F900001C007F6
:200217001203ADD00780EBEF24EB5004758201227F0020B712BF1400500D0F900001C00758
:200237001203ADD00780EBBF1400400475820122758200221201F7020207AF827E00740120
:200257005FFDEFC313FFED6016C2B70000D2B7900006C007C0061203ADD006D0078014C21A
:20027700B7900006C007C0061203ADD006D007D2B700000EBE080040C522C2B7000030B73A
:20029700047F0180027F00900005C0071203ADD0078F82227F007E08C007C006120291ADB6
:2002B70082D006D007EFC313FCED0354804CFFEE14FE70E48F82221201F71202077582CCB9
:2002D7001202517582440202511202CE1201F71202077582CC1202517582BE1202511202B5
:2002F700ABAF82C0071202ABAE82D0078E058D06E4FDFCEF2DFFEC3EFE7C0074F85EFDBC39
:20031700003ABDF837EFF4FCEEF4FD8C828D83A3120565AA82AB83ACF0FDC002C003C00469
:20033700C00590000075F08074BD1203E0AA82AB83ACF0FDE58124FCF581802E8F828E8387
:20035700120565A882A983AEF0FFC000C001C006C00790000075F080743D1203E0AA82AB17
:1203770083ACF0FDE58124FCF5818A828B838CF0ED22B7
:20038900AE82AF83EE4F601B7C6E7D00EC24FFFAED34FFFB8A048B05EA4B70F01EBEFF0120
:1603A9001F80E122AE82AF838E048F051EBEFF011FEC4D70F3225B
:2003BF00AF828F061FEE6016D2A59000BEC0071203ADC2A590000A1203ADD00780E4C2A522
:0103DF0022FB
:2003E000120483BC0003020592EF60FA30D502B2D1E583B4FF030205A8E582B4FF03020548
:20040000A8258340072482400B02059224831450030205A8F582EA8DF0A4A8F0EA8EF0A4D8
:2004200028F8E435F0F9EB8DF0A428E935F0F9E433CA8FF0A429F9EA35F0FAEBF88EF0A42B
:2004400029F9EA35F0FAE433FBEC8DF0A429F9EA35F0FAE43BFBE88FF0A42AFAEB35F0FBD3
:20046000E433CCFD8EF0A42AFAEB35F0FBE43CFCED8FF0A42BFBEC35F0FC20E7031204B11B
:0304800002057101
:20048300AA82AB83A2F73392D1F5826002D2F7ACF0E58124F9F8E6FD08E6FE0886F008E6DC
:0E04A300A2F73392D5F5836002D2F7AFF022B4
:06003500E478FFF6D8FD9F
:2004B1007804EC7011E58224F8500AF582E4C9CACBFCD8EF22EC7820058220E713D582014A
:1304D10022C3E933F9EA33FAEB33FBEC33FCD8EA15822258
:200013007900E94400601B7A009006D9780175A000E493F2A308B8000205A0D9F4DAF275B4
:02003300A0FF2C
:2004E400E522452360467A01E52225E0F522E523334012F523E5829522E583952340030A15
:2005040080E6C3E52313F523E52213F522C3E5829522F5F0E58395234005F58385F082C3ED
:0D052400E52313F523E52213F522DAE12289
:20003B007800E84400600A790175A000E4F309D8FC7800E84400600C7900900001E4F0A3C3
:04005B00D8FCD9FAFA
:20053100120625700AE582458345F0700122E430D112F4700BE5F0F47006E58330E70122B5
:1405510090800022700AE5F07006E58320E70122907FFF22DD
:0C056500E4AC83AB82FAF9748E02061B32
:20057100B98003EA13B34010EA2401FAE43BFBE43CFC50047C800582BC000EBB000BBA00CE
:2005910008E4F5F0F583F58222A2D1E582138CF092F78B838A8222E4F583F58275F080F48E
:0F05B100A2D11322E4F583F58275F0C0747F2286
:0D000600758123120680E58260030200036D
:1C05C00020F71430F6148883A88220F507E6A88375830022E280F7E49322E0224A
:2005DC00C2D5E58330E70DD2D5E4C39582F582E49583F583E52330E70BE4C39522F522E409
:1605FC009523F5231204E430D50BE4C39582F582E49583F5832244
:13061200FCABF0AA83A982749EC2D1F5821204B10205718B
:20062500120684C3749E95824039790012069630D126E9F42401F582EAF43400F583EBF484
:200645003400F5F0ECF43400700AE582458345F0700122E430E70F22EC20E71489828A83AC
:1B0665008BF02230D10AE4F582F583F5F074802274FFF582F583F5F0747F22A8
:04068000758200225D
:12068400AA82AB83A2F73392D1F5826002D2F7ACF0227B
:200696006040F82582500274FFF582E824F8501ECCCBCAF9E4CC24F85014CBCAF9E4CB246C
:2006B600F8500BCAF9E4CA24F8500379002224086010F8C3EC13FCEB13FBEA13FAE913F91F
:0306D600D8F12236
:00000001FF
