:03000000020006F5
:20005F0075083F750906750A5B750B4F750C66750D6D750E7D750F0775107F75116F7512B7
:13007F007775137C75143975155E75167975177102000343
:030003000200A454
:1A009200AE82AF838E048F051EBEFF011FEC4D70F322850880850B8080FE78
:06003500E478FFF6D8FD9F
:200013007900E94400601B7A009000B0780175A000E493F2A308B8000205A0D9F4DAF275E3
:02003300A0FF2C
:20003B007800E84400600A790175A000E4F309D8FC7800E84400600C7900900001E4F0A3C3
:04005B00D8FCD9FAFA
:0D0006007581181200ACE582600302000352
:0400AC007582002237
:00000001FF
