:03000000020006F5
:20005F0075083F750906750A5B750B4F750C66750D6D750E7D750F0775107F75116F7512B7
:13007F007775137C75143975155E75167975177102000343
:03000300020132C5
:20009200AE82AF838E048F051EBEFF011FEC4D70F3227F08BF08005003020115EF24F05001
:2000B20003020115EF24F8FE240A83F582EE240C83F583E473D7DFE7EFF7FF070F000000DA
:2000D2000000000101D2A4D2A3D2A28036D2A4D2A3C2A2802ED2A4C2A3D2A28026D2A4C2CD
:2000F200A3C2A2801EC2A4D2A3D2A28016C2A4D2A3C2A2800EC2A4C2A3D2A28006C2A4C2AA
:20011200A3C2A2EF2408F98780900064C007120092D0077580000FBF100050030200A62285
:050132001200A480FB97
:06003500E478FFF6D8FD9F
:200013007900E94400601B7A0090013B780175A000E493F2A308B8000205A0D9F4DAF27557
:02003300A0FF2C
:20003B007800E84400600A790175A000E4F309D8FC7800E84400600C7900900001E4F0A3C3
:04005B00D8FCD9FAFA
:0D000600758118120137E5826003020003C6
:0401370075820022AB
:00000001FF
