:03000000020006F5
:20005F0075083F750906750A5B750B4F750C66750D6D750E7D750F0775107F75116F7512B7
:13007F007775137C75143975155E75167975177102000343
:03000300020127D0
:20009200AE82AF838E048F051EBEFF011FEC4D70F3227F00EF24F8500302010AEF240A8383
:2000B200F582EF240C83F583E473CCD4DCE4ECF4FC040000000000000001D2A4D2A3D2A2A6
:2000D2008036D2A4D2A3C2A2802ED2A4C2A3D2A28026D2A4C2A3C2A2801EC2A4D2A3D2A23A
:2000F2008016C2A4D2A3C2A2800EC2A4C2A3D2A28006C2A4C2A3C2A2EF2408F987809000EC
:1A01120064C007120092D0077580000FBF080050030200A6221200A480FB14
:06003500E478FFF6D8FD9F
:200013007900E94400601B7A00900130780175A000E493F2A308B8000205A0D9F4DAF27562
:02003300A0FF2C
:20003B007800E84400600A790175A000E4F309D8FC7800E84400600C7900900001E4F0A3C3
:04005B00D8FCD9FAFA
:0D00060075811812012CE5826003020003D1
:04012C0075820022B6
:00000001FF
