:04000000020029329F
:01000B0032C2
:0100130032BA
:01001B0032B2
:030023000203D7FE
:2000820075210175220075083F750906750A5B750B4F750C66750D6D750E7D750F07751061
:2000A2007F75116F75127775137C75143975155E751679751771751901751A02751B0475F4
:1100C2001C08751D10751E20751F40752080020026A3
:030026000203CF03
:2000D300AE82AF838E048F051EBEFF011FEC4D70F322AE82AF83EE4F601B7C6E7D00EC243B
:2000F300FFFAED34FFFB8A048B05EA4B70F01EBEFF011F80E1227F08BF0800500302017A8A
:20011300EF24F0500302017AEF24F8FE240A83F582EE240C83F583E4733C444C545C646C0C
:20013300740101010101010101D2A4D2A3D2A28036D2A4D2A3C2A2802ED2A4C2A3D2A2804F
:2001530026D2A4C2A3C2A2801EC2A4D2A3D2A28016C2A4D2A3C2A2800EC2A4C2A3D2A28018
:2001730006C2A4C2A3C2A2EF2408F98780900064C0071200D3D0077580000FBF100050037F
:2001930002010B22E582FF60037521017401B5213130B10930B00630B20320B3259003E818
:2001B3001200D375210020B1047582012220B0047582012220B2047582012220B313758207
:2001D300012230B10C30B00930B20630B30375210175820022740FF590B5900280739003C0
:2001F300E81200D3740FB59002806975900FAF90BF0702800FBF0B02800FBF0D02800FBF4B
:200213000E14800F752201800D752202800875220380037522047590F0AF90BF7002802A0D
:20023300BFB002800CBFD0028010BFE01D80148019AF2274042FF5228010AF2274082FF514
:20025300228007AF22740C2FF52274F0B590FB8003752200852282227F0074F7F590B5908E
:2002730002802E9003E8C0071200D3D007AE90BE7702800FBEB702800EBED702800DBEE7EB
:2002930010800C7F01800A7F0580067F0980027F0D74F7B590FB74FBF590B59002802E90E1
:2002B30003E8C0071200D3D007AE90BE7B02800FBEBB02800EBEDB02800DBEEB10800C7FC0
:2002D30002800A7F0680067F0A80027F0E74FBB590FB74FDF590B59002802E9003E8C00700
:2002F3001200D3D007AE90BE7D02800FBEBD02800EBEDD02800DBEED10800C7F03800A7F1E
:200313000780067F0B80027F0F74FDB590FB74FEF590B59002802E9003E8C0071200D3D00F
:2003330007AE90BE7E02800FBEBE02800EBEDE02800DBEEE10800C7F04800A7F0880067F80
:200353000C80027F1074FEB590FB8F8222AF827E00EF23540124FF92B48F05ED2DFFC2B6E4
:20037300900001C007C0061200D3D2B69000011200D3D006D0070EBE080040D5C2B59000CC
:20039300011200D3D2B522D288D2A8D2AF22AE894306018E89758CFC758A18D2A9D2AFD2CA
:2003B3008C22AF82AD894305208D897598507587808F8D8F8BD2ACD2AFD28E227582FA1204
:0F03D30003B580FEC29885999910990280FB327C
:06005800E478FFF6D8FD7C
:200036007900E94400601B7A009003E6780175A000E493F2A308B8000205A0D9F4DAF27587
:02005600A0FF09
:20005E007800E84400600A790175A000E4F309D8FC7800E84400600C7900900001E4F0A3A0
:04007E00D8FCD9FAD7
:0D0029007581221203E2E5826003020026C9
:0403E20075820022FE
:00000001FF
