:03000000020006F5
:20005F0075190175083F750906750A5B750B4F750C66750D6D750E7D750F0775107F75111E
:16007F006F75127775137C75143975155E7516797517710200034A
:0300030002018671
:20009500AE82AF838E048F051EBEFF011FEC4D70F3227F08BF08005003020118EF24F050FB
:2000B50003020118EF24F8FE240A83F582EE240C83F583E473DAE2EAF2FA020A12000000BC
:2000D5000000010101D2A4D2A3D2A28036D2A4D2A3C2A2802ED2A4C2A3D2A28026D2A4C2C9
:2000F500A3C2A2801EC2A4D2A3D2A28016C2A4D2A3C2A2800EC2A4C2A3D2A28006C2A4C2A7
:20011500A3C2A2EF2408F98780900064C007120095D0077580000FBF100050030200A9227C
:20013500E582FF60037519017401B5193130B10930B00630B20320B3259003E8120095759A
:20015500190020B1047582012220B0047582012220B2047582012220B3137582012230B1C3
:200175000C30B00930B20630B30375190175820022758200120135AF82BF01F5B2A080F117
:06003500E478FFF6D8FD9F
:200013007900E94400601B7A00900199780175A000E493F2A308B8000205A0D9F4DAF275F9
:02003300A0FF2C
:20003B007800E84400600A790175A000E4F309D8FC7800E84400600C7900900001E4F0A3C3
:04005B00D8FCD9FAFA
:0D000600758119120195E582600302000367
:04019500758200224D
:00000001FF
