:03000000020006F5
:03005F0002000399
:0300030002007484
:20006200AE82AF838E048F051EBEFF011FEC4D70F3227E147F008E048F051EBEFF011FEC1F
:200082004D601AD2A59000BEC007C006120062C2A590000A120062D006D00780D9C2A522CD
:06003500E478FFF6D8FD9F
:200013007900E94400601B7A009000A6780175A000E493F2A308B8000205A0D9F4DAF275ED
:02003300A0FF2C
:20003B007800E84400600A790175A000E4F309D8FC7800E84400600C7900900001E4F0A3C3
:04005B00D8FCD9FAFA
:0D0006007581071200A2E58260030200036D
:0400A2007582002241
:00000001FF
