:0400000002001132B7
:03000B000203A24B
:20006A0075210175220075083F750906750A5B750B4F750C66750D6D750E7D750F07751079
:20008A007F75116F75127775137C75143975155E751679751771751901751A02751B04750C
:1100AA001C08751D10751E20751F4075208002000ED3
:03000E0002039D4D
:2000BB00AE82AF838E048F051EBEFF011FEC4D70F322AE82AF83EE4F601B7C6E7D00EC2453
:2000DB00FFFAED34FFFB8A048B05EA4B70F01EBEFF011F80E1227F08BF08005003020162BA
:2000FB00EF24F05003020162EF24F8FE240A83F582EE240C83F583E473242C343C444C54E5
:20011B005C0101010101010101D2A4D2A3D2A28036D2A4D2A3C2A2802ED2A4C2A3D2A2807F
:20013B0026D2A4C2A3C2A2801EC2A4D2A3D2A28016C2A4D2A3C2A2800EC2A4C2A3D2A28030
:20015B0006C2A4C2A3C2A2EF2408F98780900064C0071200BBD0077580000FBF10005003AF
:20017B000200F322E582FF60037521017401B5213130B10930B00630B20320B3259003E849
:20019B001200BB75210020B1047582012220B0047582012220B2047582012220B313758237
:2001BB00012230B10C30B00930B20630B30375210175820022740FF590B5900280739003D8
:2001DB00E81200BB740FB59002806975900FAF90BF0702800FBF0B02800FBF0D02800FBF7B
:2001FB000E14800F752201800D752202800875220380037522047590F0AF90BF7002802A26
:20021B00BFB002800CBFD0028010BFE01D80148019AF2274042FF5228010AF2274082FF52C
:20023B00228007AF22740C2FF52274F0B590FB8003752200852282227F0074F7F590B590A6
:20025B0002802E9003E8C0071200BBD007AE90BE7702800FBEB702800EBED702800DBEE71B
:20027B0010800C7F01800A7F0580067F0980027F0D74F7B590FB74FBF590B59002802E90F9
:20029B0003E8C0071200BBD007AE90BE7B02800FBEBB02800EBEDB02800DBEEB10800C7FF0
:2002BB0002800A7F0680067F0A80027F0E74FBB590FB74FDF590B59002802E9003E8C00718
:2002DB001200BBD007AE90BE7D02800FBEBD02800EBEDD02800DBEED10800C7F03800A7F4E
:2002FB000780067F0B80027F0F74FDB590FB74FEF590B59002802E9003E8C0071200BBD040
:20031B0007AE90BE7E02800FBEBE02800EBEDE02800DBEEE10800C7F04800A7F0880067F98
:20033B000C80027F1074FEB590FB8F8222AF827E00EF23540124FF92B48F05ED2DFFC2B6FC
:20035B00900001C007C0061200BBD2B69000011200BBD006D0070EBE080040D5C2B5900014
:20037B00011200BBD2B522D288D2A8D2AF22AE894306018E89758CFC758A18D2A9D2AFD2FA
:20039B008C2212038980FEC0E0C0D0758CFC758A180523E4B52302052474E8B5230C74036E
:0F03BB00B52407E4F523F524B2A0D0D0D0E0326A
:06004000E478FFF6D8FD94
:20001E007900E94400601B7A009003CE780175A000E493F2A308B8000205A0D9F4DAF275B7
:02003E00A0FF21
:200046007800E84400600A790175A000E4F309D8FC7800E84400600C7900900001E4F0A3B8
:04006600D8FCD9FAEF
:0D0011007581241203CAE582600302000E0F
:0403CA007582002216
:00000001FF
