:03000000020006F5
:0300920002000366
:0300030002009563
:200095007F00758200C007120269AE82D007BE01148F0B758200C00712015175821E1203D1
:2000B500E7D0078031BE021475820012017DAF82758232C0071203E7D007801ABE03080FFB
:2000D500BFFF137FFF800FBE040C7F00758232C0071203E7D0078F057E007522648E238DD2
:2000F500828E83C007C006C0051204D0AB82D005D0068B087522647523008D828E83C0063C
:20011500C00512049A75220A7523001204D0AB82D005D0068B0975220A7523008D828E8371
:1C01350012049AAD82D0078D0A751D0690000875F040C0071201B5D0070200978D
:20015100AF82C0071202F07582A0120361120341D0078F82120361120341850B82120361F3
:2001710012034112030590000A0202BAAF82C0071202F07582A0120361120341D0078F825F
:200191001203611203411202F07582A11203611203417582001203A0AF82C007120305D08C
:0401B100078F822210
:20005F00750C3F750D06750E5B750F4F75106675116D75127D75130775147F75156F75168B
:10007F007775177C75183975195E751A79751B7137
:2001B50085821E85831F85F020AC1D1C8C03BB0800400122EB24F8500302022DEB240A8388
:2001D500F582EB240C83F583E473EFF7FF070F171F270101010202020202D2A4D2A3D2A262
:2001F5008036D2A4D2A3C2A2802ED2A4C2A3D2A28026D2A4C2A3C2A2801EC2A4D2A3D2A216
:200215008016C2A4D2A3C2A2800EC2A4C2A3D2A28006C2A4C2A3C2A28B027F008C057E0057
:20023500EAC39DFAEF9EFFEA251EFAEF351FFFAE208A828F838EF012047E240CF9878090B2
:140255000064C004C0031202DED003D0047580000B0201C34B
:03008F00752101D7
:20026900E582FF60037521017401B5213130B10930B00630B20320B3259003E81202DE750A
:20028900210020B1047582012220B0047582022220B2047582032220B3137582042230B180
:1102A9000C30B00930B20630B30375210175820022D1
:2002BA00AE82AF83EE4F601B7C6E7D00EC24FFFAED34FFFB8A048B05EA4B70F01EBEFF01F0
:1602DA001F80E122AE82AF838E048F051EBEFF011FEC4D70F3222B
:2002F000D2A1D2A09000011202DEC2A09000011202DEC2A122D2A1C2A09000011202DED2F2
:20031000A09000010202DEC2A1C2A09000011202DED2A19000011202DEC2A122C2A1D2A022
:200330009000011202DED2A19000011202DEC2A122D2A19000011202DE7F0030A00D0FEF5F
:20035000249B50F712030575820122C2A175820022AF82C2A17E008F045304807D00C3E437
:200370009C74808DF063F08095F092A08F05ED2DFFD2A1900001C007C0061202DEC2A190B3
:2003900000011202DED006D0070EBE080040C822AF827E007D00C2A1900001C007C006C042
:2003B000051202DED2A19000011202DED005D006D0078E04EC2CFE30A0010E0DBD08004025
:1703D000D5EF7009C00612032CD0068007C006120317D0068E82227B
:2003E700AF828F061FEE6016D2A59000BEC0071202DEC2A590000A1202DED00780E4C2A59A
:0104070022D2
:06003500E478FFF6D8FD9F
:200013007900E94400601B7A0090050C780175A000E493F2A308B8000205A0D9F4DAF27582
:02003300A0FF2C
:20040800E522452360467A01E52225E0F522E523334012F523E5829522E583952340030AF1
:2004280080E6C3E52313F523E52213F522C3E5829522F5F0E58395234005F58385F082C3CA
:0D044800E52313F523E52213F522DAE12266
:20003B007800E84400600A790175A000E4F309D8FC7800E84400600C7900900001E4F0A3C3
:04005B00D8FCD9FAFA
:200455007A10E4FBFCE58225E0F582E58333F583EB33FBEC33FCEB9522F5F0EC9523400687
:09047500FCABF0438201DADD2248
:0D000600758123120508E5826003020003E6
:1C047E0020F71430F6148883A88220F507E6A88375830022E280F7E49322E0228D
:20049A00C2D5E58330E70DD2D5E4C39582F582E49583F583E52330E70BE4C39522F522E44C
:1604BA009523F52312040830D50BE4C39582F582E49583F5832263
:2004D000C2D5E58330E70DD2D5E4C39582F582E49583F583E52330E70DB2D5E4C39522F593
:1804F00022E49523F52312045530D50BE4C39582F582E49583F58322D8
:0405080075820022D6
:00000001FF
